:10000000000004205938000055380000573800001F
:100010005538000055380000553800000000000039
:100020000000000000000000000000005538000043
:100030005538000000000000213600005544000043
:10004000553800005538000055380000553800007C
:10005000553800005538000055380000553800006C
:10006000553800005538000055380000553800005C
:10007000553800005538000055380000553800004C
:10008000553800005538000055380000553800003C
:10009000553800005538000055380000553800002C
:1000A000553800005538000055380000553800001C
:1000B0005538000029400000FD3F00005538000081
:1000C00055380000553800005538000055380000FC
:1000D00055380000553800005538000055380000EC
:1000E00055380000553800005538000055380000DC
:1000F000000000001D4100001544000011440000F4
:100100000D4400000144000055380000553800003F
:1001100055380000553800002D44000029440000E7
:1001200025440000194400005538000055380000EF
:10013000553800005538000055380000553800008B
:10014000553800005538000055380000553800007B
:10015000553800005538000055380000553800006B
:10016000553800005538000055380000553800005B
:10017000553800005538000055380000553800004B
:10018000553800005538000055380000553800003B
:10019000553800005538000055380000553800002B
:1001A000553800005538000055380000553800001B
:1001B000553800005538000055380000553800000B
:1001C00055380000553800005538000055380000FB
:1001D00055380000553800005538000055380000EB
:1001E00055380000553800005538000055380000DB
:1001F00055380000553800005538000055380000CB
:1002000055380000553800005538000055380000BA
:1002100055380000553800005538000055380000AA
:10022000553800005538000055380000553800009A
:10023000553800005538000055380000553800008A
:10024000553800005538000055380000553800007A
:10025000553800005538000055380000553800006A
:100260005538000010B5054C237833B9044B13B151
:100270000448AFF300800123237010BD3804002030
:10028000000000005C2D0100084B10B51BB10849AF
:100290000848AFF300800848036803B910BD074B56
:1002A000002BFBD0BDE81040184700BF0000000045
:1002B0003C0400205C2D01005C2D010000000000CA
:1002C000014B1860704700BF00000020014B5860D0
:1002D000704700BF0400002010B5034C60610DF0B2
:1002E000E8FC606210BD00BF0400002070B5094C3E
:1002F0000E461546E1602261A0600DF0DAFCA061B7
:1003000030460DF0D6FCE06128460DF0D2FC2062AC
:1003100070BD00BF0400002008B505480AF0EFFCDE
:1003200020B10348BDE808400AF032BE08BD00BF56
:10033000BC00002008B505480AF0E1FC20B10348E4
:10034000BDE808400AF024BE08BD00BFC40000207C
:100350002DE9F74F171E054689469A4600DBA8B9D6
:10036000444B1B6898070ED50AF0C8FF424B434A1E
:100370000146434802F0EAFA3F49404802F0E6FAF3
:10038000404802F0E3FA4FF0FF306FE03E4BD3F805
:10039000B440042C1E4604DC4FF000084FF01C0B48
:1003A00017E0344B1B685907EDD50AF0A7FF374A11
:1003B0000146374802F0CAFA344802F0C7FADFE7CC
:1003C0000BFB08632846996A0DF061FC20B108F127
:1003D00001084445F4DC0EE0264B1B685A07D2D5D1
:1003E0000AF08CFF2B4601462A4A294802F0AEFA51
:1003F00029462848C2E74FF01C0808FB0468631C24
:100400004FF0000BC6F8B430C8F830B0B9F1000FA7
:100410001FD038460AF006FDC8F83000A8B9154BC1
:100420001B689B07AFD50AF069FF134C01953B464B
:1004300001460094184A124802F088FA2B462246D8
:100440003946154802F082FA9AE73A4659460CF0C6
:10045000DAFC1C2303FB04630C9A9F6300209D625B
:10046000C3F82C90C3F83CA01A64586303B0BDE8ED
:10047000F08F00BF64010020180101003B01010062
:100480004F010100020A0100040000205A0101008E
:10049000720101007D0101009F0101002DE9FF4172
:1004A000294B1B7880460E468BB9284B1B689A0750
:1004B00044D50AF023FF264A0146264802F046FAB0
:1004C000234802F043FA244802F040FA36E04FF0A5
:1004D000FF312248224F0AF0C5F90024B44223D24A
:1004E0007B680093321B03AB08EB0401386804F00F
:1004F000D9F8054688B1154B1B689B0715D50AF03E
:10050000FDFE184A0146134802F020FA154802F091
:100510001DFA114802F01AFA07E0039B002BDDD008
:100520001C44A642DAD800E000250C480AF016FA6E
:10053000002D0CBF20464FF0FF3001E04FF0FF30A0
:1005400004B0BDE8F08100BF540400206401002025
:10055000CC0101004F010100020A0100BC00002093
:1005600004000020E30101007FB500230393064649
:1005700098B11D4B1B789BB91C4B1B689B070CD576
:100580000AF0BCFE1A4A01461A4802F0DFF9184880
:1005900002F0DCF9184802F0D9F94FF0FF3021E001
:1005A000164D95F8C440012CF7D14FF0FF3105F1FD
:1005B000B8000AF057F96B680093224603AB0DF1BF
:1005C0000B01286804F06EF8044605F1B8000AF043
:1005D000C5F9002CE1D1039B012BDED19DF80B3036
:1005E0003370204604B070BD540400206401002024
:1005F000CC0101004F010100020A010004000020AB
:100600002DE9F04F4FF400708BB00AF00BFC8046E0
:10061000B0B9B24B1B6899070CD50AF06FFEB04A0F
:100620000146B04802F092F9AD4802F08FF9AE48A9
:1006300002F08CF900200AF07DF80BB0BDE8F08FD5
:1006400000274FF400720021DFF8A0B20CF0DBFBB2
:100650003D46059704970397A44B93F8C430012BAC
:1006600002D001200AF04CFE0DF12700FFF77CFFBD
:100670000028F1D1B5F5FF7F11DD984B1B689A0773
:10068000EAD50AF03BFE9A4A0146964802F05EF926
:10069000974802F05BF9944802F058F9DCE76B1CCC
:1006A0009DF9272008F80520904C08F803001D4606
:1006B00006908E4B069AD3F8B4309A4280F2AA8004
:1006C000D4F834A0BAF1000F10D1D4F828904846DD
:1006D0000DF0EFFAA842024600F29780291A414431
:1006E00048460CF05BFB002840F08F80D4F82C903B
:1006F000B9F1000F12D1E36B206C4A464946984786
:10070000A06A0DF0D6FA281A2A46494640440CF051
:100710007AFBA06A0DF0CDFA2D1A76E0BAF1000F3F
:1007200015D1A26B206B51460CF06DFBD4F82890CC
:1007300048460DF0BEFA4946421E206B0CF03DFBC8
:10074000A06A0DF0B6FA636B013B18446063636BFB
:10075000A26B934231D2226B9DF92710D154636B67
:10076000A06A03F10109C4F834900DF0A2FAD4F89C
:100770002CA0079050460DF09CFA079B0344994526
:10078000024639D3236B0793C0EB09005146184446
:100790000DF097FA079B824600282DD119464A464C
:1007A000206CE36B9847626B206B51460CF02BFB7F
:1007B000C4F834A02A46514623E0484B1B689B07E7
:1007C00011D50AF09BFD236B00930146A36A494AA9
:1007D000444802F0BBF8226BA16A464802F0B6F822
:1007E000414802F0B3F8626B206B00210CF00BFB68
:1007F000002161632A4604E0B5F5FF7F05DD2A4646
:10080000002140460CF0FFFA0025069B01330693B9
:100810001C344EE74FF0FF3137480AF023F8334BD2
:10082000D3F8C84003F1C000002C18BF26460AF0D8
:1008300095F8002C77D0316909B1F3691BB9DBF861
:100840000810DBF81830D6F814900493B9F1000FB3
:1008500001D0336A1BB9DBF80C90DBF81C30B469AB
:1008600005930CB1776A1FB9DBF81040DBF82070F4
:10087000049B9D4209DB039B3BB9049BE81A1A4683
:1008800040440DF01EFA18B14DE0039B002B4AD0F6
:10089000B36AF26AF068934230D29DF92720C254BD
:1008A000B06A059B00F1010A9A45C6F828A008D352
:1008B000C3EB0A00F368059A494618440DF001FAA3
:1008C00018B3BA452DD3F068C7EB0A0A3A46214659
:1008D00050440DF0F6F920BB17E000BF6401002082
:1008E000000201004F010100020A01000400002083
:1008F0002802010050020100C400002000210CF079
:1009000082FA2146F0680DF0CCF9301D0AF009F9A1
:100910002A46002140460CF076FA002303931D4638
:100920009AE601230393B5F5FF7F7FF795AE0D4857
:100930000DF098F8049B059A9342B8BF1346BB424A
:100940001C46B8BF3C462D1B08EB0501224640461D
:100950000CF033FA2A46002108EB04000CF053FA9D
:10096000254679E67A02010038B50A4C94F8C4307D
:10097000834205460DD004F1B8004FF0FF3109F075
:1009800071FF84F8C45004F1B800BDE8384009F0A4
:10099000E5BF38BD0400002070B5184B1B78064633
:1009A0000C469BB9164B1B689B070CD50AF0A6FC9E
:1009B000144A0146144801F0C9FF124801F0C6FF6D
:1009C000124801F0C3FF4FF0FF3070BD104D4FF0E3
:1009D000FF3105F1BC0009F045FF31464FF0FF3310
:1009E0002246286803F046FE064605F1BC0009F0E1
:1009F000B5FF002EE7D1204670BD00BF5404002093
:100A000064010020CC0101004F010100020A010035
:100A10000400002037B5204B8DF807001B7863B920
:100A20001E4B1B689A0733D50AF068FC1C4A014626
:100A30001C4801F08BFF1A4810E01B4D95F8C4408C
:100A4000012C11D0154B1B689B0721D50AF056FCD1
:100A5000164A0146134801F079FF144801F076FF69
:100A6000134801F073FF13E04FF0FF3105F1BC00B4
:100A700009F0F8FE22466B6828680DF1070103F0C3
:100A8000F9FD044605F1BC0009F068FF204601E0CD
:100A90004FF0FF3003B030BD54040020640100204B
:100AA000CC0101004F010100040000208802010078
:100AB000020A010038B51A4D04464FF0FF3105F126
:100AC000BC0009F0CFFE34B320460DF0F2F86B689D
:100AD00002462146286803F0CDFDE0B1114B1B68AA
:100AE0009B070ED50AF00AFC234601460E4A0F4822
:100AF00001F02CFF21460C4801F028FF0C4801F0C2
:100B000025FF0C4809F02AFF0B4B0C4A0C4840F219
:100B100085210BF055FF074809F020FF002038BD64
:100B20000400002064010020B10201004F01010017
:100B3000020A0100C00000209D1901007E0501008D
:100B4000D30201002DE9F8431F46584B1B7880461D
:100B50000E4614466BB9564B1B689C0740F1A180AA
:100B60000AF0CCFB534A0146534801F0EFFE5148CE
:100B700012E0524D95F8C430012BA94612D04C4BCF
:100B80001B68980740F18D800AF0B8FB4C4A01467B
:100B9000494801F0DBFE4A4801F0D8FE494801F01F
:100BA000D5FE7EE0002979D0002A77D04FF0FF31C2
:100BB00005F1BC0009F056FEB8F1000F22D0404606
:100BC0000DF077F86B6802464146286803F052FD45
:100BD000C0B1374B1B6899070CD50AF08FFB3A4A16
:100BE0000146354801F0B2FE374801F0AFFE354806
:100BF00001F0ACFE354809F0B1FE354B354A40F204
:100C0000422145E0D9F80430D9F800002B4D2246A6
:100C1000314603F02FFDC0B1254B1B689A070CD558
:100C20000AF06CFB2C4A0146234801F08FFE2A484B
:100C300001F08CFE234801F089FE244809F08EFE65
:100C4000234B244A40F2522122E027B338460DF0CC
:100C500030F86B6802463946286803F00BFDD0B1C6
:100C6000134B1B689B070CD50AF048FB1B4A014637
:100C7000114801F06BFE194801F068FE114801F0BF
:100C800065FE124809F06AFE114B124A40F26221D9
:100C900013480BF095FE0D4809F060FE0020BDE8FA
:100CA000F8834FF0FF30BDE8F88300BF5404002004
:100CB00064010020CC0101004F010100040000206C
:100CC000F1020100020A01001A030100C000002025
:100CD0009D19010063050100390301005103010062
:100CE000D30201002DE9F84FDDF828B0894692467D
:100CF0001F46804628B121B11AB113B1BBF1000FD4
:100D000010DA7F4B1B689E0771D50AF0F7FA7D4B0E
:100D10007D4A01467D4801F019FE7A497A4801F082
:100D200015FE61E07A4E3378012B12D1744B1B68AB
:100D30001D070CD50AF0E2FA764A0146764801F022
:100D400005FE744801F002FE744801F0FFFD002327
:100D50003370734C00234FF4E1322370626063728E
:100D60000322A372E372204602232272237303F04C
:100D70006DFC014650BB6B4D28468C2240F8284B39
:100D80000CF041F8524649464046C5F804B0FFF71A
:100D9000ADFA3846FFF7A0FA05F1B8000AF080F87E
:100DA000002834D0564B1A6812F0020F1C4622D08D
:100DB0000AF0A4FA5C4A0146544801F0C7FD5A48BB
:100DC00001F0C4FD554801F0C1FD14E04C4B1B6817
:100DD00098070CD50AF092FA544A01464B4801F0A4
:100DE000B5FD524801F0B2FD4C4801F0AFFD4FF0A7
:100DF000FF30BDE8F88F23689907F8D50AF07EFA2E
:100E00004B4A0146414801F0A1FD4948EAE705F196
:100E1000C0000AF045F800B3394B1A6812F0020F0F
:100E20001C460CD00AF06AFA424A0146374801F0E3
:100E30008DFD404801F08AFD384801F087FDFFF73D
:100E40006BFA23689A07D2D50AF058FA3A4A014653
:100E50002E4801F07BFD3848C4E7C5F8C80005F10D
:100E6000BC000AF01DF830B3254B1A6812F0020FCF
:100E70001C460CD00AF042FA304A0146234801F0E1
:100E800065FD2E4801F062FD244801F05FFDFFF78B
:100E900043FAFFF74FFA23689B070CD50AF02EFAA6
:100EA000274A0146194801F051FD254801F04EFD41
:100EB0001A4801F04BFD234B23491B6823480022AD
:100EC00009F050FBB8B1FFF727FAFFF733FA2048D3
:100ED00009F015FF10B11E480AF05AF8084B1B68BC
:100EE0009C0784D50AF00AFA1A4A0146074801F01D
:100EF0002DFD184876E701233370BDE8F88F00BF59
:100F0000640100201F010100700301004F01010076
:100F10005404002085030100AF030100020A010010
:100F20005804002004000020CF030100BA03010090
:100F3000EA03010005040100220401003804010055
:100F400058040100000000200106000076040100A2
:100F5000C00000208004010038B5044698B91B4B3E
:100F60001B689B072ED50AF0C9F9194B194A01468F
:100F7000194801F0EBFC1649164801F0E7FC174848
:100F800001F0E4FC1EE04FF0FF31154809F06AFC67
:100F9000144A136833B1A34202D12368136001E0FD
:100FA0001A46F6E70E48251D09F0D8FC284609F038
:100FB000A4FE10B128460AF071F8204609F06CFF33
:100FC000002038BD4FF0FF3038BD00BF6401002065
:100FD000D5050100980401004F010100020A01003B
:100FE000C4000020CC00002038B5054698B9144B49
:100FF0001B689B0720D50AF081F9124B124A014663
:10100000124801F0A3FC0F490F4801F09FFC104863
:1010100001F09CFC10E04FF0FF310E4809F022FC7B
:101020000D4B1C680CB12346FBE72C6009481D6082
:1010300009F094FC204638BD4FF0FF3038BD00BFAA
:101040006401002091050100980401004F01010096
:10105000020A0100C4000020CC0000202DE9F84F56
:101060009946724B1B7807468A46934663B9704B84
:101070001B689A072ED50AF041F96E4A01466E4860
:1010800001F064FC6B4840E06C4D95F8C430012BD6
:101090000CD0674B1B689B071CD50AF02FF9684AD8
:1010A0000146654801F052FC65482EE0B0B9604B3E
:1010B0001B689F070ED50AF021F9624B624A014670
:1010C0005D4801F043FC5F495F4801F03FFC5F4829
:1010D00001F03CFC4FF0FF30BDE8F88FB9F1000F94
:1010E000E5D00A9B002BE2D0302009F09BFE06469B
:1010F00070B94F4B1B689E07ECD50AF0FFF8544AB5
:1011000001464D4801F022FC514801F01FFCDEE78A
:101110003022002106F104080BF075FE0021404644
:1011200009F042FF044660B1414B1B689D0774D52E
:101130000AF0E4F8474A01463F4801F007FC4548F9
:1011400066E00A9BF3624FF0FF31B760C6F80C907F
:1011500005F1BC0009F086FB3046FFF745FF384635
:101160000CF0A7FD6B6802463946286803F082FA46
:10117000044660B12E4B1B6898074ED50AF0BEF8A6
:10118000354A01462C4801F0E1FB334840E06C69E8
:1011900020460CF08EFD214602466B68286803F05D
:1011A00069FA044660B1224B1B68990735D50AF0ED
:1011B000A5F82A4A0146204801F0C8FB274827E045
:1011C0006B6828685A46514603F054FA044660B1E9
:1011D000174B1B689A0720D50AF090F8204A014661
:1011E000154801F0B3FB1E4812E041F28831404639
:1011F00009F021FC044680B10D4B1B689B070CD500
:101200000AF07CF8174A01460B4801F09FFB15488D
:1012100001F09CFB0D4801F099FB3046FFF79CFE66
:10122000114809F09BFB2046BDE8F88F54040020CC
:1012300064010020CC0101004F01010004000020E6
:10124000AC040100270101003B010100020A01007A
:10125000D8040100F5040100120501002B0501006E
:101260004605010093220100C00000202DE9F74F40
:101270006C4C05468B4604F1BC004FF0FF311F4615
:10128000164609F0EFFA28460CF013FD664B019064
:101290001B78A14663B9654B1B689E071DD50AF0F4
:1012A0002DF8634A0146634801F050FB60480FE0A7
:1012B00094F8C430012B13D05C4B1B689D070CD5F0
:1012C0000AF01CF85C4A01465A4801F03FFB5A48B4
:1012D00001F03CFB594801F039FB4FF0FF349AE034
:1012E000BBF1000F00D086B9504B1B689C07F4D5AA
:1012F0000AF004F8524B534A01464E4801F026FBCF
:101300004F49504801F022FBE4E7302009F08AFD04
:10131000044660B9454B1B689807DED509F0EEFF1F
:10132000494A0146434801F011FB4748D0E73022C3
:10133000002104F104080BF066FD0021404609F08D
:1013400033FE824660B1394A126891075FD509F0D1
:10135000D5FF3E4A0146374801F0F8FA3B4831E0F4
:1013600027B1276138460CF0A4FCE0610C9B23B147
:10137000636118460CF09DFC20620D9B23B1A361B4
:1013800018460CF096FC6062E662A560C4F80CB0EA
:101390002046FFF729FED9F80430019AD9F8000059
:1013A000204E294603F066F9824688B11F4A12682A
:1013B00092072CD509F0A2FF254A01461D4801F0ED
:1013C000C5FA234801F0C2FA1C4801F0BFFA1EE03A
:1013D000756928460CF06DFC736802462946306832
:1013E00003F048F9824660B1104A126893070ED59F
:1013F00009F084FF174A01460E4801F0A7FA154884
:10140000E0E741F28831404609F015FB824620466C
:10141000FFF7A2FD5446104809F0A0FA204603B099
:10142000BDE8F08F04000020540400206401002077
:10143000CC0101004F010100AC040100020A0100CF
:10144000A40501003B010100D8040100F5040100DE
:10145000120501002B050100C000002007B5194B43
:101460001B7863B9184B1B689A0725D509F046FF0E
:10147000164A0146164801F069FA144810E0154B67
:1014800093F8C430012B11D00F4B1B689B0713D569
:1014900009F034FF104A01460D4801F057FA0E4892
:1014A00001F054FA0D4801F051FA05E000230193D0
:1014B0000093FFF7DBFE01E04FF0FF3003B05DF873
:1014C00004FB00BF5404002064010020CC01010093
:1014D0004F01010004000020F1020100020A010096
:1014E00030B5224B224DDD6700224FF4F8244FF433
:1014F000FC25204920481A75DA611C6283F86420B3
:10150000DC6683F87820C3F8805083F83C201B4DBC
:101510009C6483F88C201A4C83F8A020194A9961A6
:10152000986603214FF400501D64C3F890404FF4B7
:1015300000254FF47C24C3F8A4204FF47E22596286
:1015400018675967C3F88400C3F888105D64D964CC
:10155000C3F89440C3F89800C3F89C10C3F8A820BF
:10156000C3F8AC00C3F8B01030BD00BF6C0400205D
:10157000FF050100E8050100F40501000A0601006D
:101580001606010021060100014B01221A60704776
:1015900034070020002009F0CDB800004FF480533C
:1015A00000220249024808F0DDBF00BF9515000087
:1015B0002C060100134B1B6870B5C3B10268C2B1A1
:1015C0008268B2B1D3F808213F2A15D8541C191DDE
:1015D00003EB8405A94204D051F8046FB042F9D15D
:1015E0000DE00232C3F8084143F8220007E0012071
:1015F00070BD6FF0150070BD6FF00B0070BD002066
:1016000070BD00BF70050020F8B50A4B1B68064688
:101610000D4663B100240C27AC4207FB046004DADA
:10162000FFF7C8FF20B90134F6E70020F8BD01201C
:10163000F8BD00BF7005002010B586B00446142226
:10164000002101A80BF0DFFB02238DF8043094F990
:1016500000304BB120460CF02CFB4FF0FF3302461C
:10166000214601A803F006F8002006B010BD0000D6
:101670000FB400B5C3B04FF48072002102A80BF084
:10168000C2FB0F4B187830B10E4902A80CF009FBD1
:101690000C480CF00EFB0DF1080E45ABC0F5807147
:1016A000449A019370440CF041FC002802DD02A82A
:1016B000FFF7C2FF002043B05DF804EB04B07047B1
:1016C00038070020F40600207FB540F6187009F0B6
:1016D000A9FB1B4D28602E4658B340F61872002116
:1016E0000BF091FB08211748FFF78EFF0446C0B9A5
:1016F0004FF4006221238DE80C001349134A03467E
:1017000003A808F0A4FF044620B101461048FFF7E3
:10171000AFFF06E02B68012283E8140001F0A2F974
:101720000AE0306840B109F0B7FB054B00221A60AF
:1017300002E06FF00B0000E0204604B070BD00BF77
:10174000700500208008010036060100D118000055
:101750003A06010008B509F0D1FDBDE80840014690
:101760000148FFF785BF00BF6306010008B50348C5
:10177000FFF77EFFBDE8084002F0AEBF740601002F
:1017800008B504F047FFBDE8084001460148FFF7EF
:101790006FBF00BF7D06010001490248FFF768BF27
:1017A000920601009B060100012A38B50DD1144BA9
:1017B000144A1B6814485968144B002914BF114679
:1017C0001946BDE83840FFF753BF5C681049204612
:1017D0000CF05DFA054630B90E48FFF749FF084B9B
:1017E0001B685D6038BD0C4920460CF050FA30B9DA
:1017F0000A48FFF73DFF024B1B6801225A6038BDC3
:1018000070050020AD060100BE060100B60601000D
:10181000F1050100E9060100F7060100FB060100E1
:10182000F8B51448144E154FFFF722FF1448FFF780
:101830001FFF002425463368D3F80821A24217D998
:10184000AA1C53F82230196879B15A680D48002A49
:1018500008BF3A460134FFF70BFF082C05D10A48B0
:10186000FFF706FF0948FFF703FF0135402DE2D1DE
:10187000F8BD00BF0A07010070050020040A01003E
:101880002607010056070100020A01005F07010058
:1018900030B5002489B005461422214603A80294DD
:1018A0000BF0B1FA02238DF80C304FF0FF330093A8
:1018B000012202AB294603A802F0F4FE20B90298E7
:1018C000431E5842584100E0204609B030BD000098
:1018D0002DE9F04F91B0BE4BDFF82CB31C68002C03
:1018E00040F03283DBF8005015F5887601D1B94815
:1018F00011E3D5F8143A0522043393FBF2F202EB1C
:1019000082029B1A4FF0FF37C5F8103AB8460AA872
:10191000FFF7BEFF0128DED19DF928300A2B01D048
:101920000D2B25D1D5F80C210023B354C5F80C316B
:10193000DBF8005095F9103105F58874002B00F0A4
:10194000C081D5F8140A05EB00204FF480722146BF
:1019500000F618200CF0CAF9D5F8143A0522013324
:1019600093FBF2F202EB82029B1AC5F8143AA8E14B
:101970001B2B00F09B81002C00F0D680B8F1000FEB
:101980001CDA5B2B984600F09481D5F80C311B22B1
:10199000F254D5F80C310133C5F80C3106F8038048
:1019A000D5F80C310133C5F80C31DBF800305C6838
:1019B000002C40F0808141468748ADE0002FDFF8E1
:1019C0003092DFF824A20ADA742B1F4607D11B22BB
:1019D00089F80020022289F801808AF80020A7F106
:1019E0004102012A26D9742F6DD0D5F80C311B2263
:1019F000F254D5F80C310133C5F80C3106F80380E8
:101A0000D5F80C310133C5F80C31F754D5F80C3149
:101A10000133C5F80C31DBF800305B685BBB3A463C
:101A200041466E4800F092FF6D4B1B6898680BF0C2
:101A3000A1F820E0DBF80020412FD2F8101A20D1C5
:101A4000081D052390FBF3F303EB8303C31A02EB9A
:101A50000121C2F8103A01F618214FF48072304685
:101A60000CF044F931465F4800F070FF30460CF04E
:101A700020F9C5F80C01002489F800408AF80040DC
:101A800045E7481C052390FBF3F303EB8303C31ADC
:101A900002EB0121C2F8103A01F618214FF48072CE
:101AA00030460CF023F931464E4800F04FFF3046E7
:101AB0000CF0FFF80024C5F80C0189F800408AF802
:101AC0000040422723E79AF80020474C3F2A0FD9CD
:101AD0004FF0000A454884F800A089F800A000F003
:101AE00035FF3F4B1B6898680BF044F854460EE7EF
:101AF000501CC0B26D2B20703D4909F8023040F0F7
:101B0000DC800232002322700B54DBF80020546882
:101B1000002C40F0D480374800F018FF304B1B6891
:101B200098680BF027F8F2E6D5F80C21B3549DF92C
:101B30002810082901D07F2913D1D5F80C31002BAA
:101B40003FF4E5AE013BC5F80C31DBF800305B68D3
:101B5000002B7FF4DCAE08221146274800F0F6FE89
:101B6000DCE7092940F08480D5F80C312348F4548F
:101B7000FFF77EFDA1460294A2460194DBF80030F7
:101B80000299D3F808218A4249D9019A023253F8BE
:101B900022301B68002B3DD0D5F80C210393194649
:101BA00030460CF08EF890BB0AF1010ABAF1010F31
:101BB000039B2BD0BAF1020F05D11A4649461048B3
:101BC000FFF756FD23E019460E48FFF751FD1EE0D2
:101BD000340700207707010084070100880701000F
:101BE000C80200208E070100380700209507010079
:101BF000F406002092070100B6070100020A010066
:101C0000BC070100BF070100700500209946029B38
:101C100001330293019B0133402B0193AED1BAF102
:101C2000010F1FD1B9F1000F1CD048460CF041F84C
:101C3000FF2817D8D5F80C31C3EB000A524609EB40
:101C40000301F0180BF0B9F8D5F80C0182440AF141
:101C50000103C5F80C31202306F80A30D5F80C3101
:101C60000022F2543246AD49AD48FFF701FD4EE681
:101C7000DBF800305B683BB9AA4800F067FEAA4B6E
:101C80001B6898680AF076FFD5F80C310133FF2BFA
:101C9000C5F80C317FF63BAEA448FFF7E9FC9F483E
:101CA000FFF7E6FC0023C5F80C3114E64FF0FF37D0
:101CB000B84604462BE6002429E6012427E61C4604
:101CC00025E64FF4C07200219948DFF864A20BF0BA
:101CD0009AF8182200210AA80BF095F80022099220
:101CE0000AAF15469146A1569DF82430202904EBF1
:101CF000020638D001DC29B17BE022290AD03B2939
:101D000048D076E0980700F1FA8043F004038DF89C
:101D100024307BE052B102F1FF3804EB080101915D
:101D200014F908105C2901D1D9073FD403F003014D
:101D300001296BD0022900F0E28069B943F0030366
:101D40008DF824303B68591C396003EB0513511C96
:101D500021444AF8231059E0032957D103F0FE0328
:101D60006FF3410311E052B102F1FF3804EB0801B7
:101D7000019114F908105C2901D1D80716D403F099
:101D80000301012942D16FF300038DF8243086F856
:101D900000903BE0A2B102F1FF3804EB0801019191
:101DA00014F908105C290BD1D90709D530460BF07E
:101DB00080FF3146421C01980AF0FFFF424625E0B1
:101DC00003F0020000F0FF01002840F0988003F0CB
:101DD000030001281AD161F300038DF824303B6819
:101DE00031709BB10135052D10DC0AAB03EB850783
:101DF0000CE0D8070AD443F001038DF824303B6887
:101E0000591C03EB051339604AF823609DF8243010
:101E1000590708D503F0020303F0FF02002B6ED12F
:101E20009246914641E00132FF2AF3DC052DF1DCB8
:101E300039680F297FF757AFECE7DBF800305B68B4
:101E40003BB93C4800F082FD374B1B6898680AF0AC
:101E500091FE374B9E592E2130460BF00AFF88B376
:101E6000831B0193DBF80070D7F8083105933B1D05
:101E700004934FF000080123059A42450BD9049AB8
:101E8000114651F8042F0392039A04911068D8B9AF
:101E90000133412BF0D1012309F101094D454AEAF3
:101EA000030A20DBB9F1060F1DD00AAB4FEA8916F1
:101EB00053F8293002931E4B33440693029B002BA8
:101EC000BBDC66E00190CDE7019A0793314612B181
:101ED0000BF0F7FE01E00BF0DAFE079B002842D082
:101EE00008F10108D4E7BAF1010F05D154B1214638
:101EF0001148FFF7BDFB05E0BAF1020F02D10F4810
:101F0000FFF7B6FB0B48FFF7B3FB0D4A034800236E
:101F100013700C4A1370FFF7ABFBDCE4C30701003E
:101F2000C607010085070100C8020020CB07010099
:101F300074050020020A0100EA07010003080100FD
:101F4000F4060020380700201348FFF791FBDBF868
:101F5000000008F0A1FF0020CBF8000008F0EAFB29
:101F600011B0BDE8F08F07F504774FF4006200214F
:101F700038460AF048FF039B029A9E68069B384643
:101F80004FF40061B047054B186800F50470FFF787
:101F900053FB002380E700BF1208010070050020FA
:101FA0002DE9F04F8F4D0FCDD9B00DF140094C46C2
:101FB0000FC495E80F00002684E80F004FF48072EC
:101FC000314618A80A960AF01EFF4FF4006008F088
:101FD00029FF0546002800F001814FF400623146D8
:101FE0000AF011FF04F04CF831467F4804F022F962
:101FF0007E4B7F4A1B680893FF217E4B18A80BF08D
:1020000073FD18A80BF055FEB0F5006F03D32946F9
:10201000794800F09BFC18A80BF04BFE18AB411C54
:10202000754A28460BF060FD18A80BF042FE714B74
:10203000724A0446FF2118A80BF056FD18A80BF0B1
:1020400038FEC4F50063834204D829466A4800F08C
:102050007DFC002418A80BF02CFE18AB411C664A2E
:1020600028190BF041FD18A80BF023FE614B604AC4
:102070000444FF2118A80BF037FD18A80BF019FE37
:10208000C4F50063834204D829465B4800F05EFC37
:10209000002418A80BF00DFE18AB411C564ADFF8BF
:1020A00068B128190BF020FD18A80BF002FE544B64
:1020B0001E6804449A4656456AD0A6F128080AA923
:1020C000404604F037FC08B100230A9356F8243C3C
:1020D000089A96F82C70002B08BF5B4642450CBF4F
:1020E0004FF059084FF04E081846072F88BF0027B9
:1020F00009930BF0DEFD1228099B16D9132200214B
:102100000BA80AF080FE56F8242C0BAB02F1100C41
:10211000106851689E46AEE8030008326245734677
:10212000F6D11288AEF800200BABCDF818800A9AD1
:1021300004924FF00008CDF8148056F8142C039246
:1021400096F84B20029259F82720019200932D4ACD
:10215000284BFF2118A80BF0C7FC18A80BF0A9FD0D
:10216000C4F50063834204D82946234800F0EEFBFF
:10217000444618A80BF09DFD18AB411C1E4A2819B7
:102180000BF0B2FC18A80BF094FD3668044492E7FB
:10219000184B174AFF2118A80BF0A6FC18A80BF043
:1021A00088FDC4F50063834204D82946124800F034
:1021B000CDFB002418A80BF07CFD18AB0E4A411C87
:1021C00028190BF091FC03F0A1FF29460A4800F002
:1021D000BDFB284608F060FE002000E0692059B0F1
:1021E000BDE8F08FE008010088360020644D002033
:1021F00007090100F40600209207010054090100BC
:10220000F8490020A1090100000901000021012274
:102210000846FFF7C5BE00002DE9F0470024ADF5E4
:10222000027D4FF480722146064602A801940AF00E
:10223000EAFD4FF48072214642A80AF0E4FD4FF413
:10224000006008F0EFFD0546002800F09C80214664
:102250004FF400620AF0D7FD03F012FF776933698B
:1022600001A9304603EB870704F07AFB40B9736994
:10227000019A9B1A3269044602EB830806462FE056
:10228000022002F039FD284608F006FE03F03EFF6A
:10229000012079E016F0030A26D0D9F800303C4A34
:1022A0003C4902A80BF052FC02A80BF002FDC4F559
:1022B0000063834208F1040804D82946364800F038
:1022C00045FB002402A80BF0F4FC02AB411C324A8F
:1022D00028190BF009FC02A80BF0EBFC01360444B2
:1022E0004745C146D6D81FE04346294A2B4902A894
:1022F0000BF02CFC02A80BF0DCFCC4F5006383425D
:1023000004D82946244800F021FB544602A80BF0CB
:10231000D0FC02AB411C204A28190BF0E5FB02A8B7
:102320000BF0C7FC0444B8E7194B1D4AFF2142A833
:102330000BF0DAFB42A80BF0BCFC019BC3F5006379
:10234000834205D82946144800F000FB002301937E
:1023500042A80BF0AEFC019C0F4A411C42AB28196D
:102360000BF0C2FB42A80BF0A4FC019B18440190A7
:1023700003F0CCFE2946084800F0E8FA284608F0A9
:102380008BFD002000E069200DF5027DBDE8F0879F
:10239000F4060020D009010092070100C6090100DF
:1023A000D8090100F8B50F4907460BF070FC0E4B39
:1023B0001C6806461D46AC4212D02EB154F8241CAF
:1023C00038460BF064FC48B954F8242C07490848F7
:1023D00000F0BCFAA4F12800FFF71EFF2468EAE72A
:1023E0000020F8BD050A0100F8490020F40600208D
:1023F000090A0100012A2DE9F04105460E4617465B
:10240000984656DD5C683A4920460BF040FC80B99E
:10241000032F07D13749D8F808000BF038FC08B96A
:10242000012200E0002231462846BDE8F041FFF7D6
:10243000B7BD314920460BF02AFC58B9032F02D111
:10244000D8F8080002E004F069FA4068BDE8F041FD
:10245000FFF7A8BF022F2CD1284920460BF017FC0C
:102460000746E8B9264A274928460BF06FFB044681
:1024700000B23B46224A244928440BF067FB204423
:1024800084B220B23B461E4A204928440BF05EFB32
:10249000204400B21A4A1B4928440BF057FB23E0A2
:1024A0001B4920460BF0F3FB18B9BDE8F04103F0DF
:1024B000FFB9134B174A314628460BF015FB104B5A
:1024C000154A311A044628180BF00EFB04440C4B35
:1024D000124A311B28190BF007FB2044311A084B14
:1024E0000F4A28440BF000FB0020BDE8F08100BF3C
:1024F000260F0100270A01002E0A0100A90B010086
:10250000F4060020390A01006B0A01008E0A01005E
:10251000B10A0100B90A0100CB0A0100FB0A01005F
:10252000310B0100FFF766BF02210148FFF76CB8CD
:1025300014010020014B1860704700BF3C070020C9
:10254000024B5868984208BF002070472C010020B9
:10255000034B1A6880E80C0050601860704700BF99
:102560002C01002038B5064B5C681D46AC4204D0F7
:10257000A369204698476468F8E7002038BD00BF8B
:102580002C01002008B510B9FFF7DAFF20B1C369AC
:1025900013B19847002008BD4FF0FF3008BD08B5C3
:1025A00010B9FFF7CDFF20B1036A13B1984700209F
:1025B00008BD4FF0FF3008BD10B508B9FFF7C0FFE8
:1025C000C36ABDE81040184710B508B9FFF7B8FF57
:1025D000036F13B1BDE81040184710BDF7B508F000
:1025E0008DFE074608F0A9F80F4D104C0190092602
:1025F0002B462246394600960D4800F0A7F908F010
:102600009CF8324603462946204600F09FF90948C7
:1026100000F09CF90849002241F2883003B0BDE87F
:10262000F04009F0B5BB00BFFD0B0100C70B010076
:10263000DD0B0100020A0100DD25000010B508F0E5
:102640005DFE0B4C014622460A4800F07FF9204609
:1026500000F07CF9084800F079F9002207494FF4AE
:102660007A7009F095FB09F0CBFB002010BD00BF8C
:10267000E80B0100DD0B0100020A0100DD2500006E
:10268000C3B2A3F13000C0B209280FD9A3F161028F
:10269000192A02D8A3F1570005E0A3F14102192A33
:1026A00003D8A3F13700C0B2704700207047000084
:1026B0002DE9F041032A86B01C4639DD02AE102711
:1026C0003A46002130460AF09EFB0225A0688DF8AC
:1026D00009500AF093F98046A0680AF08FF9C0F318
:1026E000072040EA0820ADF80A00606805F02CF8E1
:1026F000294603900022284606F022FA051E03DA36
:102700000D48FEF7B5FF13E0E46820460BF0D1FA60
:10271000214602468DE8C0000023284606F09CF8BA
:10272000011E02DA0548FEF7A3FF284606F062FA0A
:1027300006B0BDE8F08100BF100C0100280C0100BC
:102740000020FFF741BF000070B5012A86B014D108
:1027500004A90020FFF716FF9DF8150002909DF8D0
:10276000140001909DF8130000909DF812309DF820
:1027700011209DF810101A482AE0022A2BD15E6819
:10278000002416F9140004A978B1FFF779FF0001BD
:10279000C5B20D5506EB440393F90100FFF770FF36
:1027A000284308550134062CEBD10020FFF7F7FE33
:1027B0009DF8150002909DF8140001909DF81300FB
:1027C00000909DF812309DF811209DF810100548DA
:1027D000FEF74EFF02E00448FEF74AFF06B070BD68
:1027E000410C01003D0C01006E0C0100012101486B
:1027F000FEF70ABF4C01002002210148FEF704BF8A
:102800003401002008B5037A4BB1FEF75DFFFFF7F6
:102810008BFEFFF7EBFFBDE80840FFF7EDBF08BDFB
:1028200010B5044608F07AFF08F068FE2046FFF76E
:10283000E9FF00F0B7FD05F0EBF809F0E9F901F068
:1028400097FE94E80300FFF7F9FE002010BD02296F
:1028500083BF862303604FF0FF300120704786233B
:1028600003600020704786230360002070478623A2
:102870000360002070470000F0B50E4687B0144694
:102880000021142201A8013E1D460AF0BCFA0223D1
:10289000012E8DF8043001D8671918E00AF0B2F85B
:1028A000092303604FF0FF3015E096F900300A2B42
:1028B00004F1010405D100230122084901A801F017
:1028C000D9FE00230122314601A801F0D3FEBC420B
:1028D0002646EAD1284607B0F0BD00BF86020100B7
:1028E000862303604FF0FF30704738B541F0004059
:1028F000754608F097FA2946044608F0C5FA2046BE
:1029000038BD38B5084642F00041754608F0A4FAD3
:102910002946044608F0B8FA204638BD70B502FBD7
:1029200001F545F00040764608F07CFA3146044651
:1029300008F0AAFA24B12A46002120460AF063FAD8
:10294000204670BD084608F0A7BAFEE70FB413B5DD
:102950004FF0FF310C4807F085FF044650B905A938
:10296000049801910BF0A0FA084B1B680446986884
:102970000AF000F9044807F0F1FF204602B0BDE874
:10298000104004B0704700BF40070020C80200207C
:102990000138042816D8DFE800F0110D09050300FE
:1029A000102300E0002343F0080300E0002343F07D
:1029B000040300E0002343F0020300E0002343F09F
:1029C000010300E00023014A136070476401002006
:1029D00070B586B014460021182268461E460AF0DB
:1029E00012FA174B0193174B0293174B0393174B94
:1029F0000493012C164B059307DC164B16481968F7
:102A000006B0BDE87040FEF733BE00245DF82450E8
:102A100028460BF04EF97168421C28460BF051F91C
:102A200020B10134062CF1D10C4803E0E0B2FFF7ED
:102A3000AFFF0B4806B0BDE87040FEF719BE00BFFF
:102A4000CF0C0100D50C0100DB0C0100A90B01002B
:102A5000810C010064010020E00C01000B0D01005D
:102A6000F30C010008B5064B06481F2201211A602D
:102A7000FEF7CAFD0448BDE8084008F011BA00BFDF
:102A800064010020580100204007002030B50446B2
:102A90004FF6FF750020013989B2A94210D014F811
:102AA000013B0822584010F0800F4FEA400318BF46
:102AB00083F03103D8B2531E13F0FF02F3D1EAE7DB
:102AC00030BD10B5044640B1806808B108F0E4F9A3
:102AD0002046BDE8104008F0DFB910BD13B502ACC8
:102AE000134644F8040D0A460620214601F06CFD09
:102AF00002B010BD70B50446C67808460D460BF00E
:102B0000D8F8864215D1A088304408F08BF90146E8
:102B1000A06088B1E089A2890830FFF7DFFF70B9B3
:102B200028460BF0C6F829460246A0680AF036F996
:102B300038B16FF00A0070BD6FF00B0070BD6FF020
:102B4000040070BD70B50446C078013008F06AF921
:102B5000054678B3E278002101320AF054F9E089A1
:102B6000E27829460830FFF7B9FFA088013008F065
:102B700059F9064618B9284608F08EF91AE0A288D5
:102B8000002101320AF03FF9E378E089A288184475
:102B900031460830FFF7A2FF324629460748FEF7C4
:102BA00067FD284608F078F9304608F075F96FF0AF
:102BB0000A0070BD6FF00B0070BD00BF370D010043
:102BC000064B5A7842B9012159709A700449054858
:102BD0004FF4806307F0C6BC704700BF4407002075
:102BE0001D300000410D01002DE9F74F14468A46C3
:102BF000994683460BF05DF8A4B2C7B204EB070810
:102C00001FFA88F808F10B0525F00305ADB2284638
:102C100008F008F90646002852D02A4600210AF09A
:102C2000F2F806F108033A46594618460AF0C5F884
:102C300003463B442246184651460AF0BEF8414638
:102C4000C01BFFF723FF49233370EE2373701F4B24
:102C5000B480B070F7709A88A6F80690120B043210
:102C60001C4633F8222095420CD2521BB2F5227F2B
:102C700004D2DB78012B01D8FFF7A2FFA488134F01
:102C800014B104E0FFF79CFF6FF01B0813E002A9EA
:102C90002B4641F8044D3246062001F077FC804671
:102CA00048B92C44A4B2BC80240B043437F8243037
:102CB0005D1B27F82450304608F0EEF8404601E04E
:102CC0006FF00B0003B0BDE8F08F00BF4407002099
:102CD0001FB501308DF80710039001230DF1070295
:102CE00003A9062001F052FC05B05DF804FB0000CA
:102CF0002DE9F04F0E03B6B285B0341D06F58055B0
:102D000001F10408DFF81C9102900F469346A4B22B
:102D1000ADB24FEA8808102008F084F882460028F7
:102D20007BD0102200210AF06EF80822514620467E
:102D3000FFF7D4FE002848D19AF80020492A0FD086
:102D4000FF2A07D19AF80120FF2A03D15046FFF746
:102D5000B8FE55E04FF0FF328AF804208AF80520CB
:102D6000BAF804104A1EB2F5007F04D29AF8032084
:102D7000501E030612D5504609EB080AFFF7A1FEC4
:102D80009AF802200834CC2AA4B235D14421304626
:102D9000FFF79EFF44228AF802202DE00A4492B2F7
:102DA00002F10B0121F003018BB29AF8011001939B
:102DB000EE290ED1AAF80E40AAF80C20594650462A
:102DC000029B984748B30B3010D05046FFF779FE6E
:102DD00021E009EB08029178CC2907D14421304643
:102DE0000392FFF775FF039A442191705046FFF755
:102DF00068FE019B1C44A4B204F108039D428AD8DA
:102E0000AC4238BF2C1B07F10407064B34BFA4B2F9
:102E1000082423F82740002000E0504605B0BDE814
:102E2000F08F00BF4407002038B50C4B9A7CEE2A87
:102E300005461C4605D0024600210948FFF758FF09
:102E400058B9A37DEE2B01D1002038BD2A460121BF
:102E50000348FFF74DFF0028F6D038BD4407002097
:102E6000F52A00002DE9F341804609B9C7894FE0F2
:102E7000012963D1C7880023082269463846009398
:102E80000193FFF72BFE044600285AD19DF800302D
:102E9000492B01D000245BE09DF80130EE2BF9D1E5
:102EA0009DF8033098F803009842F3D107F0BAFF79
:102EB0000546002848D09DF8030007F0B3FF0646FA
:102EC00018B9284607F0E8FF3EE09DF803202946A0
:102ED00007F10800FFF702FEB8F80E009DF8032086
:102EE00031460830FFF7FAFD9DF8032031462846A9
:102EF00009F054FF30B1284607F0CEFF304607F006
:102F0000CBFF25E0284607F0C7FF304607F0C4FF97
:102F100000213846FFF7DCFEC8B90F4B3D0B0435E6
:102F200003EB8505AB78CC2BB4D1442107F470407A
:102F3000FFF7CEFE58B94423AB7008E06FF01504DC
:102F400006E06FF0040403E06FF00B0400E00446B9
:102F5000204602B0BDE8F0814407002070B5044669
:102F6000808907F05FFF054628B3E089A2892946DA
:102F70000830FFF7B3FD064628B1284607F08CFF5E
:102F80006FF0040070BDA1892846FFF77FFDA3788C
:102F9000834206D1E38843B1E2899A4205D00121F8
:102FA00000E031462046FFF75DFF284607F074FF3A
:102FB0006FF00A0070BD6FF00B0070BD73B50503B4
:102FC0000023ADB2009304464B234FF480522946B0
:102FD00006208DF8003001F017FB10B16FF00400EF
:102FE00018E002A9EE2641F8045D04236A46062093
:102FF0008DF8016001F0CAFA0028EFD1064B0434C5
:1030000003EB8402967040F6FC7223F82420DA78F1
:103010000132DA7002B070BD44070020F8B5284CC8
:103020004FF0FF3104F10C0007F01CFC002838D1F0
:10303000E378002B35D0A37CEE2B04D0A37DEE2BC0
:103040002FD1012600E00646A28833030433A38073
:10305000130B5D1C022D08BF002504EB8501184FE2
:10306000897C442916D1002229461648FFF740FEE4
:103070002846FFF7A3FFA0B9B888CC2100F4704020
:1030800007EB8606FFF724FECC23B374FB78013BE5
:10309000FB7006E0A9B28B4202D00135EDB2D9E750
:1030A000BA8000230848637007F058FCA37813B176
:1030B000064807F03BFD0020BDE8F84007F03ABBAA
:1030C00044070020D1300000500700204C070020AA
:1030D00073B584890B3424F00304A4B20646204659
:1030E00007F0A0FE054630B301462246F089FFF7FF
:1030F000F5FC10B16FF0040418E0114E02A9B3887A
:1031000041F8043D2A462346062001F03FFA0028F4
:10311000F0D1B188214489B2B180090B043136F86D
:1031200021301C1B26F821406FF00A04284607F0C6
:10313000B3FE204601E06FF00B0002B070BD00BF8F
:103140004407002038B54FF0FF3105460D4807F021
:1031500089FB0446A0B92846FFF766FE054628B954
:10316000084807F0FBFB6FF0010038BD2146FFF770
:1031700079FE04462846FFF7A4FC024807F0EEFB60
:10318000204638BD50070020F8B50E4614460746C5
:10319000002848D0002946D0002A44DD0AF089FDE5
:1031A000802840D8B4F5007F3DDC204843783BB10F
:1031B0008378013383704FF0FF31083007F03BFC18
:1031C0004FF0FF311A4807F04DFB70BB3846FFF750
:1031D0002BFE0546D8B183889C4207D1C37880680E
:1031E00022463146184409F0D9FD58B12246EB89F0
:1031F00031463846FFF7F8FC044620B90146284618
:10320000FFF730FE04462846FFF75BFC06E0034666
:10321000224631463846FFF7E7FC0446044807F0EB
:103220009DFB2046F8BD6FF01500F8BD4407002057
:1032300050070020F8B50F461646054650B349B36F
:1032400042B31368002B25DD4FF0FF31154807F01E
:1032500009FB044608BB2846FFF7E6FD0546114872
:1032600007F07CFBDDB1AA883368934206DA284672
:103270003260FFF726FC6FF01B00F8BDEB78A96801
:103280003846194409F099FDAB8833602846FFF7AA
:1032900018FC02E06FF01500F8BD2046F8BD6FF095
:1032A0000100F8BD50070020F7B5012ACCBF5C68CB
:1032B000314C32491D4620464FF480531646019347
:1032C0000AF0E5FC78B9042E53D1EC6820460AF0E8
:1032D000F0FC012302462146A868FFF755FF0028AD
:1032E00047D027480EE0274920460AF0D0FC074681
:1032F00010BB032E3DD14FF4007007F093FD044640
:1033000018B92148FEF7B4F933E04FF4007239469A
:1033100009F079FD01AA2146A868FFF78BFF18B1D3
:103320001A48FEF7A5F903E021461948FEF7A0F96F
:10333000204607F0B1FD1CE0164920460AF0A7FC24
:1033400038B9032E15D1A868FFF7FCFE88B11248E2
:10335000D8E7204611490AF09AFC044648B90246CB
:1033600001460F48FFF7C4FC224601210C48FFF735
:10337000BFFC03B0F0BD00BF040A0100470D01000F
:103380004B0D01005F0D0100630D0100770D010081
:103390008B0D0100990D01009D0D0100940B0100A2
:1033A000452B00002DE9F743644E317809B1002424
:1033B000C0E01822304609F026FD06F10C0007F0A7
:1033C0006FFD0446002840F0B5805D48FEF7F2F836
:1033D000B046ADF8004025462746A14604220DEB35
:1033E00002012803CDF80490FFF778FB9DF8043024
:1033F0004B2BECB222D19DF80530CC2B03D0EE2B19
:1034000001D0442B1AD188F81230002221464D48B1
:10341000FFF76EFC9DF80530EE2B14D1B8F81020A4
:1034200040F6FC739A4215BF02ABF378DB19013307
:103430001ABF03F8084C0137F37004E02046FFF789
:10344000BDFD00285AD10135022D08F10408C5D16F
:103450003A4C4FF04409BFB1013FF3781DF80750D3
:1034600063B12803442100F47040FFF731FC0028C9
:1034700044D104EB850585F81290ECE72846FFF768
:103480009DFD0028E7D039E0F37823B1F3782B4D88
:10349000022B06D118E03846FFF790FD0028F5D042
:1034A0002CE0AB7CCC2B03D1B27DEE2A02D119E00B
:1034B000442BF9D0B27DCC2A03D1EE2B1CD10123B1
:1034C00011E0442A18D1F8E70423CC210020AB8076
:1034D000FFF7FEFB044678B9CC23AB74EB78013BD5
:1034E000EB700DE000231A46043336F82330C3F5A1
:1034F000805303EB0233B380002401E00446C8B9D3
:103500000E4D002105F1080007F04EFD88B901239A
:103510002B70AB881B0B043335F82330B3F5227FB7
:10352000BFF445AFEB78012B3FF641AFFFF748FB07
:1035300000E00446204603B0BDE8F08344070020C5
:10354000680100205D2F000000EB810020F00700E3
:103550004FF0807140F8083C1D4B40F80C3C4FF098
:10356000123340F8103C4FF0033340F8143C4FF056
:10357000023340F8183C4FF0013340F81C3C6FF028
:10358000020340F8243C4FF0113340F8283C4FF040
:10359000103340F82C3C4FF0093340F8303C4FF0EA
:1035A000083340F8343C4FF0073340F8383C4FF0D4
:1035B000063340F83C3C4FF0053340F8403C4FF0B8
:1035C000043340F8041C40F8202C40F8443D704778
:1035D000D16C0000EFF3108072B6704780F3108852
:1035E00070471C484FF080510160704719484FF0F8
:1035F0008051016070471848FF2101701748FF2172
:103600000170002080F30988EFF30880C008C00033
:1036100080F308880F484FF08051016062B6FEE7E2
:1036200072B6EFF3098038B1243880E8F04F0C49C6
:103630000968086002F03AFF09480A490A6802600E
:10364000106890E8F04F243080F309884EF0040EA3
:1036500062B6704704ED00E022ED00E023ED00E0EB
:10366000D0490020644D002008B500F0CFF8044890
:1036700000F02EFB0348BDE8084000F029BB00BF66
:10368000201100205C07002030B54A1CC4B204F0B1
:103690001F03C0F347100CD103EBC01000F18240B0
:1036A00000F5004090F8403003F0FE0380F8403011
:1036B00030BDC00100F1824000F50040C5185B0834
:1036C00095F8402002F0FE0242F00102034485F822
:1036D000402093F8302014F0010F19BF02F00F02C0
:1036E00042EA011101F00F0102F0F00214BFC9B269
:1036F000114383F8301030BD064B4022C3F89C20A4
:103700004322C3F88C20044A536943F48053536125
:10371000704700BF001C00400008004008B5054984
:103720000420FFF7B1FF04490520BDE80840FFF77A
:10373000ABBF00BF030004000300050007B5FFF79F
:10374000DBFF00230093064A064907484FF4006355
:1037500000F012FA03B05DF804EBFFF7DFBF00BF23
:10376000200900200030004020110020064B40229C
:10377000C3F8DC204322C3F88C20044A936943F445
:1037800000739361704700BF001C004000080040B8
:1037900008B505493920FFF777FF04493820BDE80F
:1037A0000840FFF771BF00BF030039000300380075
:1037B00007B5FFF7DBFF00230093064A06490748D9
:1037C0004FF4807300F0D8F903B05DF804EBFFF715
:1037D000DFBF00BF20080020002001415C0700205F
:1037E000024A136943F04003136170470008004028
:1037F00008B5FFF7F5FF03490348BDE8084000F0AE
:1038000063B800BF004000410408002008B500F084
:1038100087FA0E4B4FF480224FF08041C3F8082105
:10382000C3F828110A49C3F82811C3F8182193F8DE
:10383000522102F0FE0283F85221FFF7D9FFFFF771
:103840007DFFBDE80840FFF7B3BF00BF0080004127
:10385000040000C0FEE7FEE708B5104A104B9A428C
:1038600002D0043A0F4903E00F4B104A002106E052
:103870008B42F9D252F8040F43F8040BF8E7934255
:1038800002D243F8041BFAE7094B0A4A23F07F03EC
:10389000936009F05DFA00F009FEFEE75C2D01007F
:1038A0000000002038040020380400200C5C0020B8
:1038B0000000000000ED00E0436903B118477047C5
:1038C000836903B11847704710B5044600F078FAD1
:1038D00018B9024B2360024B636010BDB938000079
:1038E000C13800002DE9F0410E46074690461C46BF
:1038F00000F08CFA0546384600F08BFA6843B04277
:103900000BD33319984208D33846234642463146F2
:1039100000F083FA2046BDE8F0816FF00D00BDE8AD
:10392000F0812DE9F0410D46074690461C4600F017
:103930006DFA0646384600F06CFA7043A84210D380
:103940002B1998420DD32946384600F04AFB60B93E
:10395000384623464246294600F06EFA2046BDE826
:10396000F0816FF00D00BDE8F0816FF01000BDE850
:10397000F0812DE9F0410D46064690461F4600F0C5
:1039800045FA0446304600F044FA6043A84211D399
:10399000EB1998420ED32946304600F022FB04462C
:1039A00060B930463B464246294600F09DFA204623
:1039B000BDE8F0816FF00D00BDE8F0816FF0100000
:1039C000BDE8F0812DE9F8430E468046174600F029
:1039D0001DFA0546404600F01CFA8146404600F0BC
:1039E00015FA013810EA060403D06FF00D00BDE8A7
:1039F000F883B9450CD3B6FBF5F53D44A94507D38B
:103A000040463A46314600F09FFA2046BDE8F8832A
:103A10006FF00C00BDE8F88300F0F8B910B404684A
:103A2000A44610BC604710B44468A44610BC60476C
:103A3000012901D807F0B8BA4FF0FF30704708B538
:103A400007F06FF8002008BD10B5044607F055F9DF
:103A500010B1204607F022FB002010BD9030FFF788
:103A6000EEBF9430FFF7EBBF07B502AB012203F8BE
:103A7000011D2030194601F007F803B05DF804FB82
:103A800010B50446703000F035F9B4F88C30B4F855
:103A90008E209A420DD0D4F88820591CA4F88C109E
:103AA0002046D15C00F07DFC2046BDE8104000F0CF
:103AB00085BC2046BDE8104000F084BC2DE9F041F3
:103AC00000F1A4060546884630464FF0FF31174600
:103AD00006F0C8FEC8B90446243518F80410284674
:103AE00000F05CFC284600F05FFC0028FAD00134AE
:103AF000BC42F2D3284600F05CFC0028FAD03046E5
:103B000006F02CFF2046BDE8F0814FF0FF30BDE805
:103B1000F0812DE9FF4700F1A00605468846994649
:103B20004FF0FF31002330461746039306F09AFE0C
:103B3000E0B9044628350DF10C0ABC420AD008EB66
:103B400004030093CDF804A04A460023284600F061
:103B5000F7FF20B1304606F001FFA0B208E0039A5B
:103B6000012A04F10103F5D11C46E6E74FF0FF30CE
:103B700004B0BDE8F08700002DE9F04F044685B0A1
:103B80008B46783011461A4600F0A8F80546002802
:103B900040F084804FF4006007F044F9606700282B
:103BA0007FD04FF400622946012709F02CF904F177
:103BB00098064FF40063626F3E49009704F12800B5
:103BC00000F012FF29463046FFF732FF00286BDB7A
:103BD00004F19C0829464046FFF72AFFB0F100098E
:103BE00004DA3046FFF730FF4D465EE004F1A009ED
:103BF000484607F055F9B0F1000A06DA3046FFF7FB
:103C000023FF4046FFF720FF11E004F1A40318460C
:103C1000039307F045F9B0F1000A0ADA3046FFF7DE
:103C200013FF4046FFF710FF484607F0B1F955462D
:103C30003BE004F1080AC4F824B05946504600F0AD
:103C40007FFB834668B14046FFF7FEFE3046FFF734
:103C5000FBFE484607F09CF9039807F099F95D468A
:103C600023E0154A6260154A2260154AA260154A8F
:103C7000E260154A2261154A626139463A46504669
:103C8000C4F88850A4F88C50A4F88E5000F09EFB25
:103C90003A460321504600F099FB06E06FF00C0510
:103CA00003E04FF0FF3500E00546284605B0BDE8CB
:103CB000F08F00BFE20D0100133B0000BD3A000091
:103CC000813A0000693A0000633A00005D3A000062
:103CD00008B5243000F057FB002008BD531E1A40E1
:103CE00001BF43608260C26001600CBF10466FF08C
:103CF0000C007047C368836000207047BFF34F8F8C
:103D00000549064BCA6802F4E0621343CB60BFF377
:103D10004F8F00BFFDE700BF00ED00E00400FA0593
:103D200008B50C4A13889BB243F48073138000F0EB
:103D30007DF900F08FF900F01FF8082000F00CF872
:103D400000F094F940F6F77000F006F8BDE808407E
:103D500000F06EBB00400041C20742BF044B40F27E
:103D600006321A62030742BF014B024ADA62704709
:103D7000001C004005090100014B01225A717047E7
:103D80000008004070B58E08448AE507FCD54AF269
:103D900015548480448AE407FCD5C2EB8606144699
:103DA000A51AADB29D4203D22568A5510434F7E7A8
:103DB000438ADB07FCD54AF203534161838070BD1F
:103DC00001610B8823F0C0039B049B0C0B800D4BFF
:103DD00018600D4B4FF00051C3F88010BFF34F8FA8
:103DE000BFF36F8F4FF08042C3F88020BFF34F8F37
:103DF000BFF36F8F0020C3F88011C3F880211960D2
:103E00001A607047C811002000E100E04FF4007014
:103E100070470369986880B2704710B50469608A7A
:103E2000C007FCD513441046984204D0841A645C41
:103E300000F8014BF8E710BD2DE9F84FDFF8A4B00A
:103E40008146924698460D4625F4FF5424F01F04FF
:103E500004F5FF571F370026224AA11932444FF4B8
:103E60000073484606F50076FFF7D7FFB6F5005F0A
:103E7000F2D12B1B590A5246A3EB4123A81A8518ED
:103E8000AF4292460FD3B8F1000F0CD00BEB412597
:103E900012F8016BEE540133C3F3080303B9013187
:103EA00008F1FF38EBE7D9F810305A8AD207FCD571
:103EB0004AF201525C6100269A800BEB060231192E
:103EC0004FF40073D9F8100006F50076FFF75AFF9B
:103ED000B6F5005FF1D108EB0503013B9F42B3D378
:103EE000BDE8F88FCC1100202DE9F84321F4FF75CF
:103EF00025F00105A942074690461E460CD06C1AD3
:103F000004F500749C4228BF1C46A3B20069FFF769
:103F100039FF05F5007500E00024B44212D2C4EB6D
:103F20000609B9F5007F28BF4FF4007908EB0402B9
:103F300029461FFA89F33869FFF724FF05F5007554
:103F40004C44EAE7BDE8F8832DE9F04121F4FF5441
:103F5000ADF5007D0E460746154624F01F044FF4CC
:103F60000072FF21684608F04EFFA64212D004F509
:103F70000054A5F10F084FF400736A4631463846E5
:103F8000FFF75AFF013D28D006F50076B44201D074
:103F90004545F0D122462B464AF201500F2B09D954
:103FA00039694E8AF607FCD54A61103B888002F5D4
:103FB0000052F3E72B09B5EB031504EB43340CD0A7
:103FC000002621464FF400736A4638460136FFF753
:103FD00033FFAE4204F50074F3D10DF5007DBDE86A
:103FE000F0810369C1F3CF319A69012303FA01F12A
:103FF00011420CBF1846002070470000094B18689A
:1040000003691A8AD20703D501221A82036806E0DF
:104010001A8A92B22AB140F25E221A82436803B130
:1040200018477047C8110020FFF7E8BF084B42F25D
:104030000E029A8200229A75DA75DA6902F47C52CD
:10404000DA61DA68D207FCD5014B00221A74704796
:1040500000140040034B044A9A611A699207FCD588
:10406000704700BF0010004006260003284A136A6C
:1040700023F00F0343F004031362264B002119774A
:104080004321C2F88010244A9A6293F82C10214AE6
:1040900001F0100101F0FF000029F6D182F82000A4
:1040A00092F82C301B4913F0040FF9D102230B773F
:1040B00091F82C20174B9207FAD45A6A5A6293F857
:1040C0002C2012F0080F134AF9D1812382F82030F6
:1040D00092F82C100F4B4807FAD493F82020D10700
:1040E00006D51A6902F41062B2F5106FF9D102E038
:1040F0001A69D205FCD506494B68054A002BFBD14D
:10410000136A23F00F0343F006031362704700BFE6
:10411000001C004000100040B805010407B50B4A20
:104120009378DBB20193019B990702D5084B1B687A
:1041300033B9019BDB0705D5054B5B6813B1034A17
:104140005068984703B05DF804FB00BF00000241CF
:10415000CC310020002808DB4209012300F01F00B9
:1041600003FA00F0014B43F82200704700E100E041
:1041700000280DDB4309012200F01F0002FA00F0C5
:104180002033044A42F82300BFF34F8FBFF36F8FF1
:10419000704700BF00E100E0002809DB430901226D
:1041A00000F01F0002FA00F06033024A42F82300D8
:1041B000704700BF00E100E0C3690B42FCD17047CB
:1041C00008B50321FFF7F8FF036823F0020303603B
:1041D00008BD000070B50B4D06460FCD88B06C468B
:1041E0000FC495E80F0084E80F0000205DF8203030
:1041F000B34201D1C0B203E001300828F6D100205B
:1042000008B070BDF40D010010B58469227ED1079D
:10421000034608D5A27DD20705D501222275036881
:10422000BDE810401847227E900709D5A27D91076E
:1042300006D5022222759A681846BDE8104010473C
:10424000227E52070CD5628B02F037020AB1FF239F
:1042500010E0A16A5A68C9B21846BDE8104010477C
:10426000227ED20907D080222276DA68184690474B
:10427000638B9BB2638310BD054B984201D1054B04
:1042800003E0054B984201D1044B1960704700BF11
:1042900000300040DC31002000200141E0310020EE
:1042A00070B50446FFF796FFE369204E811E4A422F
:1042B0004A4113F0010F12D1182303FB02635D681A
:1042C00023689B0705F01C0506D52046FFF778FFFD
:1042D00002212046FFF770FF45F0010525602046CA
:1042E0000121FFF769FF182303FB026359689868EF
:1042F00021606060D868A06011F4C04F1BBFA18925
:10430000188A1B8A60F30C011FBFA181997CA389C5
:1043100061F34F33A381182303FB02620020D37C97
:10432000A373137D84F8303070BD00BF140E0100FC
:1043300008B5FFF74FFF80002E3000F0FE0008BDEB
:1043400070B5064608460D46FFF7AAFF0446C8B9F1
:1043500031462846B561FFF78FFF2846FFF7E8FF93
:10436000214605466C18E4B22046FFF701FF2046BF
:10437000FFF712FF2046FFF7EDFE01310429F1D1CE
:10438000002070BD70BD026808B503211046FFF71C
:1043900013FF136843F00203136008BD03689962BA
:1043A00070478369996270470368187E00F00100C6
:1043B00070470368187EC0F340007047836901228C
:1043C0009A757047836902229A75704711F0FD0F44
:1043D00008D1836901210AB9197500E099758369CB
:1043E000022108E0012902D18369042103E00329A5
:1043F00005D1836980210AB919757047997570478D
:10440000014B1868FFF700BFDC310020FFF7F8BF51
:10441000FFF7F6BFFFF7F4BF014B1868FFF7F4BED4
:10442000E0310020FFF7F8BFFFF7F6BFFFF7F4BF5A
:10443000054B064A5A60064AE02182F82310002202
:104440009A6007221A60704710E000E0EA51070006
:1044500000ED00E008B502F0A7F802F00FFDBDE89E
:10446000084002F0AFB8000038B50D4C012300251C
:10447000237225606560FFF7F7F8FDF731F809480A
:10448000FEF766F8FEF76EF80748FEF753F8204689
:10449000FEF7C6F929462846BDE83840FEF7CEB8F3
:1044A000E8310020C80100207C0100207FB500F029
:1044B0004FF806F02DFF012304930A4B03934FF4AA
:1044C000C063002202930023CDE900230649074878
:1044D000202302F0CFF906F01DFF002007B05DF8A1
:1044E00004FB00BF69440000440E0100E4310020D9
:1044F00008B502F013FA046902F010FA456904EBFA
:1045000085056C460026A5420CD9B30703D1214688
:10451000094809F035FA54F8041B084809F030FA44
:104520000136F0E7064809F09DFA064B064A0748AF
:104530009A2108F045FA00BFC8090100D20901001C
:10454000860201009D1901004D0E01005A0E010066
:104550000349044B044A5B1A11605360704700BF63
:104560000C5C002000FC0320F431002068467047FA
:10457000014809F077BA00BF830E0100024B1422F4
:1045800002FB0030704700BF6C04002070B50B4E7A
:104590000D46142101FB0060296880680144084829
:1045A0001C46FFF7BEF9844202D0064809F05AFAC9
:1045B0002B681C442C60002070BD00BF6C040020E0
:1045C000040800209A0E0100F8B51D460C46A1B162
:1045D0009AB10B4E09684FF0140E0EFB0060CF1815
:1045E000C668B74209D8806801440648FFF77AF9DF
:1045F00023681D4425600020F8BD4FF0FF30F8BD52
:104600006C0400200408002070B516460D4A0E4DBB
:10461000142303FB0020846828460C44FFF7FCF9B0
:10462000B4FBF0F42846FFF7F7F944432846FFF7B8
:10463000F3F92146B6FBF0F22846FFF7C3F9002054
:1046400070BD00BF6C0400200408002050B1037846
:1046500023B1022B04D1054B036101E0044A02613E
:10466000002070474FF0FF30704700BF5C0700200C
:104670002011002010B5144670B169B10278022AE9
:1046800004BF074A02610069A2B2FFF7C7F984427A
:1046900014BF0520002010BD4FF0FF3010BD00BF3B
:1046A0005C07002010B51C4680B179B10378022B5D
:1046B00004BF084B036192B2029B0069FFF7B3F994
:1046C0002060B0FA80F04009404210BD4FF0FF304A
:1046D00010BD00BF5C07002008B50D4809F0C2F905
:1046E0000C4B0D4A196891420DD100221A6072B626
:1046F000BFF35F8F094A538ADB07FCD5074B4AF2A9
:1047000017529A80FEE7BDE80840FFF7F7BA00BFEE
:10471000AF0E0100FC3100205753424600400041DB
:1047200037B5384C23680D4683B10320FFF726FFC9
:10473000354B80681968354A236801443448FFF7CF
:1047400018F910B14FF0FF3059E02060002DF9D07A
:104750006C78002C43D106F0D1FD2E4A01462E483C
:10476000FEF7F4F82B48FEF7F1F82C48FEF7EEF8C8
:1047700002AD0520FFF702FF45F8044DC3688268CB
:1047800029460720FFF702FF0820FFF7F7FE29461A
:10479000C368826801940520FFF7F8FE0620FFF742
:1047A000EDFE2946C368826801940820FFF7EEFEFB
:1047B0000520FFF7E3FE2946C368826801940620BE
:1047C000FFF7E4FE0520FFF7D9FEC26881680520E7
:1047D000FFF71AFF124B134A1A6020460FE0012C14
:1047E0000CD106F08BFD104A01460B48FEF7AEF8DF
:1047F0000D48FEF7ABF80948FEF7A8F8002003B013
:1048000030BD00BF043200200032002008320020FA
:1048100004080020B70E0100DD0B0100020A0100B0
:10482000FC31002057534246C80E0100F8B51F4620
:1048300016460D4606F062FD094C0146224609481F
:10484000FEF784F82046FEF781F80748FEF77EF869
:104850003B46324629460320FFF7B6FE0020F8BD4E
:10486000E80E0100DD0B0100020A010010B50C4644
:1048700006F044FD0C4A01460C48FEF767F80A486A
:10488000FEF764F80A48FEF761F82468094B1C60DB
:104890003CB90320FFF772FE2146C2680320FFF7F0
:1048A000B3FE002010BD00BFF60E0100DD0B0100BD
:1048B000020A0100003200202DE9F84F03201C46B7
:1048C0009046FFF75BFE214F86683B68DFF89490C7
:1048D000DFF87CA01E44B4B3D9F80050C5F5007BC6
:1048E000A34528BFA34641465A460AEB050008F0F7
:1048F00064FA05EB0B03B3F5007FC9F80030D84428
:10490000CBEB0404E7D1124A12483146FFF731F8E5
:1049100080B106F0F3FC104A01461048FEF716F885
:104920000D48FEF713F80E48FEF710F84FF0FF3071
:10493000BDE8F88F3B68C9F8000003F5007306F581
:1049400000763B60C7E72046BDE8F88F00320020C4
:104950000832002004080020040F0100DD0B0100D4
:10496000020A0100043200202DE9F341089F164697
:104970009846044668B362B359B367B36BB3002576
:104980009DF82430226120606060816080F84830AA
:104990004563856307630573FEF71CFE114B596B76
:1049A000616404F1400203F1300EC4F840E00A6093
:1049B0005A63FEF713FE0423637342460A9B009773
:1049C000314604F1140001F0F3FA636AE363284608
:1049D00005E0062003E0052001E040F2BD2002B022
:1049E000BDE8F081F84900201FB50124029401942C
:1049F000069C0094FFF7B8FF04B010BD1FB500245B
:104A0000029401248DE81800069C6343FFF7ACFF75
:104A100004B010BD38B5044688B3FEF7DBFD194B72
:104A20001B78054623B1FEF7D9FD4FF47A7038BDE7
:104A3000627B042A03D0FEF7D1FD082038BD94F82C
:104A40004820012A03D0FEF7C9FD092038BD637351
:104A50002068844203D0183801F048F9F8E7636C05
:104A6000226C1A60226C04F11400536001F098FA71
:104A70002846FEF7B3FD01F021FB002038BD0620DB
:104A800038BD00BF604D00202DE9F0418846154635
:104A90000446002850D000294ED0FEF79BFD637BD2
:104AA000042B074604D0FEF799FD0820BDE8F081ED
:104AB000236B9D4205D9FEF791FD40F2BF20BDE872
:104AC000F08125B9FEF78AFD0520BDE8F081266852
:104AD000B4422A4641461FD104F1140001F068F99E
:104AE000054648B13846FEF779FD40F2BE206A2DF2
:104AF00018BF2846BDE8F081636BA26B0133934277
:104B000088BFA363E26B6363636A9A4288BFE3630F
:104B10003846FEF763FD0CE0706B08F04EF9A6F125
:104B20001800B56301F094F83846FEF757FD01F020
:104B3000C5FA0020BDE8F0810620BDE8F081000044
:104B40002DE9F84FDDF828A00B9D904699460646C2
:104B500000286DD0BAF1000F6AD0002D68D0FEF7A2
:104B600039FD354B1B78074643B158EA090305D098
:104B7000FEF734FD4FF47A70BDE8F88F737B042B99
:104B800005D03846FEF72AFD0820BDE8F88F06F16B
:104B9000140B584601F089F9044668B92A46514673
:104BA000584601F08AF9736B013B38467363FEF790
:104BB00015FD2046BDE8F88F58EA090308D1002307
:104BC00038462B60FEF70AFD4FF4C870BDE8F88F39
:104BD0001A4B93F800B0BBF1000F07D00023384602
:104BE0002B60FEF7FBFCC820BDE8F88F144C216851
:104BF0004246C1F84CA04B46304601F04FF83846CB
:104C0000FEF7ECFC01F05AFAFEF7E4FC07462068D8
:104C100001F0A0F8064618B923681B6D2B6001E06F
:104C2000C5F800B03846FEF7D9FC3046BDE8F88F2D
:104C30000620BDE8F88F00BF604D0020E855002039
:104C4000D0490020F0B51B4E89B04FF0FF324FF035
:104C5000FF33194801F0B8FB10B1682000F04CF8A0
:104C600001AFFEF7B7FC3568B54220D095E80C00DF
:104C70002C461A6054F814295360FEF7AFFC043533
:104C80003B46206861681A4603C20834AC421346AA
:104C9000F7D1206810600023019A9A4203F10104C1
:104CA000DFD957F8240000F071FC2346F4E7FEF743
:104CB00095FCCAE710340020D44900207FB50123B9
:104CC0000593094B04934FF400730393074B02932E
:104CD00000220023CDE9002305490648062301F000
:104CE0004BFD07B05DF804FB454C0000E04D002093
:104CF000190F0100684D0020024B1B6803B11847D3
:104D0000704700BF7801002010B5064CFEF762FC2A
:104D1000D4E90023013243F10003C4E90023FEF784
:104D20005DFCF3E7B83C0020E8B1030C1B0413B9A9
:104D30000004102300E0002310F07F4F02BF08336F
:104D40000002DBB210F0704F02BF04330001DBB28F
:104D500010F0404F02BF02338000DBB2002803DBBB
:104D60000133DBB200E02023C3F12000052803DD7E
:104D7000132803DC06387047002070474FF0FF30DF
:104D80007047C3688B428CBF5B1A0023C3604369C2
:104D90001944416170470246C86810B520F0070009
:104DA000FFF7C2FF0E280FD800230B6102EB800330
:104DB0009C6D4C619C6D04B121619965012303FADE
:104DC00000F0536D1843506510BD0246C86810B519
:104DD00020F00700FFF7A8FF0E2818D84B690BB189
:104DE0000C691C610C6904B1636102EB8004A36D62
:104DF000994209D14B69A36533B9012303FA00F045
:104E0000536D23EA0003536500230B614B6110BD12
:104E100010B5044668B161B1806800F049FC10B17A
:104E20000120FFF769FF20462021BDE81040FFF771
:104E3000A8BF10BD43698B428CBF5B1A002310B51D
:104E40004361C36819440369C1609942044688BF3D
:104E500001614AB11046FFF767FF431C1FBF04EB17
:104E60008004A3690133A36110BD2DE9F3410C4611
:104E70000546002800F09E80002900F09D80FEF786
:104E8000A9FB2860A86890B1202C10D8036973B1E1
:104E900001A900F0F3FB024648B920212846FFF79C
:104EA000C9FF019E1EB12868FEF798FB85E0E61D4C
:104EB00026F00706202E38BF20263046FFF734FFA5
:104EC000471C70D0421C4FF0FF3393406A6D1A406C
:104ED0001FD093B213B9120C102300E0002312F07C
:104EE000FF0F02BF0833120ADBB2110702BF0433FF
:104EF0001209DBB2970702BF02339208DBB2D10777
:104F00005CBF0133DBB20E2B03D8163355F8237088
:104F100067B9163055F8207037B1FB6823F00703E6
:104F20009E4203D97F69F7E7B8463EE039462846F6
:104F3000FFF74BFFFB6806F1300123F0070207F192
:104F400010088A4208EB020018D303F0020333432F
:104F5000FB60103A23F0070308EB0301961B46F0B1
:104F600001064FF0AB328F60CE6048F8032000237B
:104F70004B6081602846FFF70EFF03E0C36823F013
:104F80000203C360F96821F00103FB604FF0FE32B9
:104F9000002321F0070187E80C0010312246284643
:104FA000FFF748FF01E04FF000082868FEF716FB06
:104FB000464602E0064600E00E46304602B0BDE836
:104FC000F081000070B505460C46002900F09C8079
:104FD000002800F09980FEF7FDFAAB68286053B115
:104FE0009A68944207D35B689C4204D221462846C3
:104FF000FFF70EFF83E054F8103CB3F1AB3F07D14D
:10500000FEF7ECFA414808F02DFD0120FFF774FE91
:1050100054F8103CB3F1FE3F08D02868FEF7DEFAE2
:105020003B4808F01FFD0120FFF766FE54F8041C02
:105030004FF0AB3344F8103C002344F80C3C41F0F3
:10504000010321F0070144F8043C10312846FFF722
:1050500098FE54F8046C26F007062644F368DA0735
:105060000CD531462846FFF7B0FEF36823F007025F
:1050700054F8043C1033134444F8043C54F8043C02
:105080009B0702D4A4F110061AE054F8086C3368A8
:10509000B3F1AB3F08D02868FEF7A0FA1D4808F02E
:1050A000E1FC0120FFF728FE31462846FFF78DFE80
:1050B00054F8043C23F00702F36810331344F36000
:1050C00031462846FFF767FEF36806F1100223F029
:1050D0000703D418D358B3F1AB3F0BD0B3F1FE3F65
:1050E00008D02868FEF77AFA0A4808F0BBFC0120CD
:1050F000FFF702FEE368A66043F00203E36028685E
:10510000BDE87040FEF76ABA70BD00BF720F0100C3
:10511000980F0100B80F01002DE9F3410746002860
:1051200074D0002972D0CC1D551824F007042D1B13
:1051300025F00705394BA5F510529A4268D89422FC
:105140000021204607F05FFEA5F1A80C04F19803AA
:105150000822C4F8A42004F1C00E03EB0C020026C0
:105160004FF0FE31CEEB020E04F1B000C4F89810FF
:10517000C4F8BCE0C4F8A060C4F89C60C4F8C46083
:10518000C4F8C06090600220D06043F80C10D4F8DE
:10519000A430566023F00703C4F8A82004F1A80245
:1051A00002EB03086260C4F8AC6020463C60D1505A
:1051B00008F11001C8F80460FFF704FFD8F80C30BC
:1051C000A66023F00703ED1AE5602561636142F2F2
:1051D00028012046FFF749FE0546D8B14FF4005696
:1051E0000096202300F128020D4900F005FA28B9A5
:1051F000A56031462046FFF7C4FD03E0294620465E
:10520000FFF7E0FEE3682361002003E0062001E0F1
:105210006420FFE702B0BDE8F08100BF00DC0700BA
:10522000D60F0100F8B50746002846D0002944D023
:10523000CC1D24F0070455182D1B25F00705572D0C
:105240003DD92A460021204607F0DDFDFEF7C2F9D0
:10525000103D6219082338600026E3604FF0FE31EC
:1052600004F11803A5F12800E662A662606284E8F2
:105270004200A66093600223D360234661515660CA
:1052800043F8102FE2687868606122F007029D18E9
:105290007B609950FB686E6003F11002EB68386820
:1052A00023F007031344FB60FEF798F9384605F135
:1052B0001001FFF787FE3046F8BD0620F8BD6420D8
:1052C000F8BD0000F8B50B4C0B480C4E0A4F94E8A3
:1052D0000600FFF721FF012533689D4209D204EB48
:1052E000C50354F835105A683868FFF79BFF01353D
:1052F000F2E7F8BDF4310020F835002074010020F9
:105300002DE9F047054691460C4639B9002A00F0D0
:10531000D0801146BDE8F047FFF7A7BD12B9FFF7EF
:1053200051FEC6E0FEF756F9AB682860014613B39C
:105330009A6894421FD35B689C421CD2B9F1200F3B
:1053400040F2D780FEF74AF949462846FFF78DFD1F
:105350000646002800F0B0802346024604F12001F2
:1053600053F8040B42F8040B8B42F9D1214628462E
:10537000FFF74EFDA0E009F1070626F0070654F8F6
:10538000043C202E23F0070838BF2026B045A4F1A6
:10539000100A04EB080735D308F110012846FFF77F
:1053A000F0FCFB68D9070BD539462846FFF70DFD01
:1053B000FB6823F007039844103708F110081F44D6
:1053C00006F13003984565D354F8043C03F002031A
:1053D00033436FF00F0244F8043C921B23F00703A1
:1053E000E118424442F00102CA604FF0AB32C1F80A
:1053F00008A0E25000234B60FB68B96043F0020351
:10540000FB6044E0FB68DA0759D523F00703434407
:1054100010339E4253D808F110012846FFF7B1FC23
:1054200039462846FFF7D1FCFB6854F8042C23F0DA
:1054300007031032134444F8043C23F007032344C9
:1054400006F13001DA68C3F808A022F00202DA603F
:1054500054F8040C20F007028A421BD300F002002B
:10546000304344F8040C103A20F007002118961B32
:1054700046F001064FF0AB32CE60C1F808A02250D2
:1054800000224A60DA68996042F00202DA60284637
:10549000FFF781FC54F8041C21F0070128464A4616
:1054A0001031FFF7C7FC4FF0FE3344F8103C28687A
:1054B0001FE04846BDE8F0873046BDE8F087084663
:1054C000FEF78CF831462846FFF7CFFC074668B157
:1054D00054F8042C22F00702B242214628BF32467B
:1054E00007F06BFC21462846FFF76CFD3846BDE807
:1054F000F087FEF773F82046BDE8F08770B50C46DC
:105500001646054688B181B183682BB19A689142ED
:1055100002D35B68994208D3FEF75CF8286044F830
:105520000C6CBDE87040FEF759B870BDF8B530F0AE
:105530000044764600F0004703D1104808F092FA84
:105540001AE00F4D21462868FFF78FFC044668B922
:105550000C4808F087FA0C4B1A686AB901222046F9
:105560001A6000F0A5F96920FFF7C6FB27B932469B
:1055700021462868FFF7C2FF2046F8BDE30F01006F
:10558000F8350020FD0F01000C340020024B0146CD
:105590001868FFF717BD00BFF83500202DE9F0416E
:1055A000124E21F000450F462A4601463068F0466B
:1055B000FFF7A6FE002F044604DB01464246306892
:1055C000FFF79CFF74B96DB1094808F04BFA094B1D
:1055D0001A683AB9012520461D6000F069F928468D
:1055E000FFF78AFB2046BDE8F08100BFF8350020B8
:1055F0001910010008340020F8B5069D0446002863
:1056000033D0002931D0002A2FD0B5EB430F2ED351
:1056100043EA020080072DD115F003002AD1561964
:105620009646D518B54277469E4403D23D60013078
:105630001D44F7E708BF013000253D602160A260EE
:105640006660E360A26160612061FDF7C3FF0A4B01
:105650005969616204F1200203F1100626620A60B2
:105660005A61FDF7BBFF2846F8BD0620F8BD40F2A1
:105670009510F8BD0720F8BDF849002038B50D4653
:10568000044698B191B1FDF7A5FF2369E0613BB1F4
:10569000A2692A601268A261013B2361002401E033
:1056A0002B606924FDF79AFF204638BD062038BDDF
:1056B00038B50D46044668B161B1FDF78BFFA369AB
:1056C000E0612B602369A56101332361FDF786FF4B
:1056D000002038BD062038BD10B50446002846D04D
:1056E00001462348FBF7C4FFE36813F0010F23686A
:1056F00008D0B3F1AB3F14BF1E481F48FBF7B8FFFB
:105700001E4807E0B3F1FE3F14BF1A481A48FBF7E2
:10571000AFFF1B48FBF7ACFFE16831F0070103D096
:105720001848FBF7A5FF02E01748FBF7A1FF216827
:105730001648FBF79DFF61681548FBF799FFE36882
:105740009A0704D5A1681348FBF792FF02E01248BC
:10575000FBF78EFFE368DB0704D5626921690F4818
:10576000FBF786FF0E48BDE81040FBF781BF10BD78
:10577000361001001B250100C40701003A1001008A
:1057800040100100461001004D10010058100100AA
:105790005E10010067100100771001008110010008
:1057A000020A010070B5044698B10546094855F84B
:1057B000541FFBF75DFF0848FBF75AFF903455F87C
:1057C000046F26B13046FFF787FF7669F9E7A542F7
:1057D000F5D170BD91100100A910010038B5044643
:1057E000B0B10C48FBF744FF0B48FBF741FF65687D
:1057F00075B1A5F110044CB12046FFF76DFFE368C9
:1058000033F0070302D010341C44F4E76D68EFE76F
:1058100038BD00BFE8100100A910010070B50546B1
:10582000002836D02E461B48FBF722FF2B69EA687A
:1058300056F8141F1848FBF71BFF1848FBF718FF12
:105840001748FBF715FF0024A30703D114B1134831
:10585000FBF70EFFA11D56F8042F12480134FBF789
:1058600007FF0F2CF0D10D48FBF702FFAC6884B1A5
:105870000D48FBF7FDFE0D48FBF7FAFE2169636951
:1058800005485A1A52015B014901BDE87040FBF717
:10589000EFBE70BDF5100100570F0100020A0100B4
:1058A000221101005D11010075110100AF1101000D
:1058B00038B5154C2568FDF78DFE2860134D284638
:1058C000FBF7D6FE1248FBF7D3FE21681148FBF721
:1058D000CFFE2068FFF782FF2846FBF7C9FE0E487F
:1058E000FBF7C6FE2068FFF75DFF2846FBF7C0FE0A
:1058F0000A48FBF7BDFE2068FFF790FF2368186891
:10590000FDF76CFE002038BDF8350020020A0100CA
:10591000DA11010031120100441201009C12010051
:1059200070B50446D8B1D1B1002520606060057320
:1059300081600561456180F82420FDF74BFE094B2D
:10594000D968216204F11C0203F10806E6610A60CD
:10595000DA60FDF743FE02236373284670BD06201C
:1059600070BD00BFF84900200122FFF7D9BF10B574
:10597000034690F87400243304461A687AB18A42C8
:1059800002D14A691A60F8E713689A4218BF93F87F
:105990005B40A04228BF204602F11403EDE710BD92
:1059A00010B50446FFF7E3FF94F8733083420146D5
:1059B00004D02046BDE8104001F006B810BD00003C
:1059C00038B50446002832D0FDF704FE194B1B7889
:1059D000054623B1FDF702FE4FF47A7038BD627BB5
:1059E000022A03D0FDF7FAFD082038BD94F82420E0
:1059F000012A03D0FDF7F2FD092038BD2069637349
:105A000010B12146FFF7CCFF2068844203D018383C
:105A100000F06CF9F8E7236AE2691A60E269284647
:105A20005360FDF7DBFD00F049FB002038BD062088
:105A300038BD00BF604D0020836D5A7B022A0AD119
:105A40001B6990F8732093F87310914203D10021E1
:105A50001846FFF7A5BF70472DE9F84390469946D1
:105A6000054600286CD0394B1B88042B6BD0FDF702
:105A7000B1FD374B1B7807462BB1FDF7AFFD4FF457
:105A80007A70BDE8F8836B7B022B04D0FDF7A6FD8E
:105A90000820BDE8F8832F4E2C693368A34215D146
:105AA000AB695A1C0AD140F28630FFF725F9384617
:105AB000FDF794FD40F28630BDE8F8830133AB6119
:105AC000FDF78CFD40F28530BDE8F88334B95A6AA1
:105AD0002B616A615D620123AB612CE058EA090227
